:10000000000001203902000091020000930200006C
:100010009502000097020000990200000000000015
:100020000000000000000000000000009B02000033
:100030009D020000000000009F020000A1020000DD
:10004000A5020000A702000069150000F9160000D3
:1000500009170000AF020000B1020000B302000067
:10006000B5020000B7020000B9020000BB020000A8
:10007000BD020000BF020000C1020000C302000078
:10008000C5020000C7020000C9020000CB02000048
:10009000CD020000CF020000D1020000D302000018
:1000A000D5020000D7020000D9020000DB020000E8
:1000B000DD020000DF020000A3020000A302000036
:1000C000E1020000E3020000E5020000E702000098
:0C00D000E9020000EB020000ED0200005D
:1000DC00354936480A1A02D0072291438D463449D5
:1000EC0034480A1A06D00722914381F30988022268
:1000FC0082F3148830483149314A00F044F83148D1
:10010C003149324A00F03FF831483249324A00F066
:10011C003AF832483249334A00F035F8324833491C
:10012C00334A00F030F833483349344A00F02BF8A6
:10013C0033483449344A00F026F834483449002214
:10014C0000F02CF833483449002200F027F83348EB
:10015C003349091A082902DB002202604160314A46
:10016C0090471F481F49884205D00268043003B4E9
:10017C00904703BCF7E700208646EC4600200021A0
:10018C00294A9047FEE7884207D0521A05D00378D7
:10019C0001300B700131013AF9D17047884202D01D
:1001AC0002700130FAE770470000012000E00020E7
:1001BC000000012000000120FC3900001800002084
:1001CC0050000020F0020000F0020000603400003B
:1001DC00FC3900001800002018000020C03400007A
:1001EC00C0340000C0340000C0340000C034000033
:1001FC00C0340000C0340000C0340000FB390000E3
:10020C00343A000050000020500000205000002024
:10021C00FC080020FC080020FC080020FC08002042
:10022C00FC2800205D020000ED2300000F484FF079
:10023C000701884385460E4880470E48016841F403
:10024C0070010160BFF34F8FBFF36F8FFFF740BF9B
:10025C0009480A490A4A884207D0521A05D003783D
:10026C0001300B700131013AF9D1704700000120C7
:10027C007527000088ED00E0A83400000000002085
:10028C0018000020FEE7FEE7FEE7FEE7FEE7FEE7CC
:10029C00FEE7FEE7FEE7FEE7FEE7FEE7FEE7FEE72A
:1002AC00FEE7FEE7FEE7FEE7FEE7FEE7FEE7FEE71A
:1002BC00FEE7FEE7FEE7FEE7FEE7FEE7FEE7FEE70A
:1002CC00FEE7FEE7FEE7FEE7FEE7FEE7FEE7FEE7FA
:1002DC00FEE7FEE7FEE7FEE7FEE7FEE7FEE7FEE7EA
:0402EC00FEE700BF6A
:1002F000F0B595B01D46164608460C4600F0C5FF01
:100300001A9B0D93CDE9086500252B46082205A907
:1003100020460A958DF82C500C9500F0F1FF079BB4
:100320000293069B03939DF814308DF8115003F04F
:100330000302012A1DD1BDF81420059DC3F3C20399
:10034000C2F383168DF81030B20008230EA92046A0
:1003500000F0D6FFC5F3952508AB0093324602ABFB
:100360000EA9284600F0DAFB204600F092FF15B0F7
:10037000F0BD022AF8D1BDF81650C3F3C203C5F38D
:1003800089158DF810300827082D2E4628BF08261D
:100390003B4632460EA9204600F0B2FFAD1B08AB2B
:1003A00002AA31460EA8374400F01CFC002DEBD108
:1003B000DAE70000014B01221A707047910000201B
:1003C0007047000070B50E4D06460FCD88B06C46E4
:1003D0000FC495E80F00002E84E80F00094A0A4870
:1003E0004FF0060308BF00226946009301F07EF833
:1003F00008B100F051FC054B1E7008B070BD00BF85
:10040000C0340000B5030000180000205000002098
:1004100007B5044B0093044A4023FFF769FF03B07C
:100420005DF804FB2D0400005100002038B50D4894
:100430000D4C0E4D002323700378EB5CD2B263B1F8
:10044000043001F07DFF08B100F026FC084B1A785B
:1004500012B12378002BFBD038BD0C3001F060FDC9
:10046000F1E700BF1800002091000020A405002043
:100470005000002008B50848084A0378D35C3BB117
:10048000043001F0EFFEBDE808400020FFF79ABFFE
:100490000C3001F0D7FCF6E718000020A40500207E
:1004A0000120FFF78FBF000010B5054CFFF7F8FFE4
:1004B0000421204600F0A0FA0123637210BD00BFA2
:1004C0002C000020037813F0030F03F0040202D085
:1004D00012B910467047B2B103F00303012B03D0E9
:1004E000022B09D0012070470A6800880232C0F34D
:1004F000831002440A60F5E70B684288023303EB7D
:1005000092130B60EEE70B684288013303EB921302
:100510000288F4E72DE9F04FDFF824A10F4685B0FB
:100520000446861C0020154600F00AFCDAF800108C
:100530003960DAE90132134401335B1A0AF21C47CD
:100540000AF583690AF21448B3421BD30020002D38
:1005500072D004F00F039B0143F0050363F30F0017
:10056000DAF80020DAF808301340033332444AF84E
:1005700023000020CAF8002000F0E4FB012005B0B1
:10058000BDE8F08F0121384600F001FC484600F03C
:1005900016FC404600F013FCDAF80400DAF808B064
:1005A000009000EA0B0003300AEB80006946FFF779
:1005B00089FF009B50BB0BEA03020AEB820203F1A6
:1005C000020CD2680192013303EA0B0B0AEB8B0B8E
:1005D00002F00302012ADBF80C10CDF800C023D092
:1005E000022A16D08346404600F0ECFB10B1009B77
:1005F000CAF804305946384600F0C9FBDAE901234D
:100600001344DAF8002001339B1A9DE70BEA03003C
:10061000C9E7BDF80630C3F3891303334FEA114B22
:100620000CEB93030093DEE7BDF80430C3F38313B0
:100630004FEA114B6344F5E7A40544F006008FE749
:100640006401002008B50E4B0E48FF229A6000227C
:10065000C3F81824C3E90022C3F8142483F8202423
:1006600000F0CCFD38B9084A084B09499B1ADB0851
:1006700002469A4200D108BD21F822200132F8E753
:1006800064010020903400006034000090340000C9
:100690000000002030B50A4C71B10A4A0A49121B09
:1006A000D20800239A4201D1002030BD31F82350F6
:1006B000854202D00133F5E7034654F83300F4E7EE
:1006C000603400009034000002000020094B013922
:1006D00003EBC000032909D8DFE801F00A02040691
:1006E00004207047007970474079704700207047B8
:1006F0000220704760340000034BD3E90030C31A76
:1007000058425841704700BF640100202DE9F04372
:1007100085B0FFF7F1FF0646002840F0FA807E4CD6
:10072000C4F81804BFF34F8F6368A56800932B408B
:10073000033304EB83006946FFF7C4FE009A0746C3
:10074000002865D105EA020304EB8303911C013202
:10075000DB6801932A4004EB820203F00303D268B2
:100760000091022B02926BD1BDF806306B48C3F3A7
:100770008918B8F1500FC14628BF4FF0500909F150
:10078000080169F38F13C1F30901ADF8063000F0D9
:100790004DFD0646002800F0AA8000F076FD3B469D
:1007A000082201A9304600F082FD009925EA0102E5
:1007B0000132B9EB820F4FEA82033AD95FFA89F925
:1007C0009BB32940DDB2A9EB050903315FFA89F734
:1007D000A946534D04EB810108234A46304600F0F8
:1007E00066FD45B109F108095FFA89F33A462946E1
:1007F000304600F05CFD009B08F1030803EB980312
:100800000093D4F81834002B4FD1D4F810545DE085
:100810002368934204D86360304605B0BDE8F08396
:100820002A40033204EB820085E73D491D461F46FE
:10083000D2E72940033108234A4604EB8101D7E778
:10084000012B54D1BDF804303448C3F38311062979
:1008500028BF062161F38913023101F00F018900DD
:10086000ADF8043000F0E2FC064600283FD000F06E
:100870000CFD3B46082201A9304600F018FDBDF8EA
:100880000420C2F38312BB00974203F10803B8D2DD
:1008900000994A1C29400331009204EB8101042293
:1008A000304600F004FD0137E9E7304600F0F1FC86
:1008B000FFF722FF80F00100C6B2ADE76B7A23B1EB
:1008C0002B6831461B68284698476D68002DF5D186
:1008D000304600F0DEFC284600F032FAD4F8183436
:1008E0000BB9009B6360002000F02CFAE0E7D4F81D
:1008F000104444B90B4B0C491888000440F0020026
:1009000000F060F8D4E7236820469B689847646845
:10091000EFE7002680E700BF64010020903400006C
:100920007001002010000020EC3400002DE9F74F8A
:10093000224E04460F46924601A901221846D6F8D7
:1009400008909B46FFF7E6FD20B3019D4FF000089D
:10095000AA1CD84508EB020126D11948002100F055
:10096000F3F980F31000000440EA1440E4006B1C2B
:1009700004F0380403EA090305EA090544F0010418
:1009800006EB8303033544EA881444EA8724D860DD
:1009900046F8254096F820341BB1FFF7B7FE002833
:1009A000FBD103B0BDE8F08F09EA010106EB81013C
:1009B0005AF82830CB6008F10108CAE7640100202A
:1009C0008005002000231A46FFF7B0BF07B50123BA
:1009D000019201AAFFF7AAFF03B05DF804FB1FB55F
:1009E000CDE90123069B039301AA0323FFF79EFF92
:1009F00005B05DF804FB000030B50E4CD4F81024AF
:100A000003460020114629B9187242B9C4F81034BF
:100A10005A6030BD0D7A854205D04968F3E75168C8
:100A200059605360F5E701300A28EBD14FF0FF30F1
:100A3000EFE700BF6401002038B5074B0125D3F86C
:100A4000104483F8205404B938BD236865722046E9
:100A50005B6898476468F6E76401002030B5C38896
:100A600085B004460D4633B1144A00921449154A24
:100A7000284600F001FA217A05291DD0637A4BB18E
:100A8000A088FFF723FE104B104953F8202028467A
:100A900000F0F2F9227A0E4BA08853F8222003923C
:100AA0000021FFF7F7FD039A0A490346284605B0DF
:100AB000BDE8304000F0E0B905B030BD343500008D
:100AC0001C35000014350000A03500003935000049
:100AD000C43500003C35000007B503460846197AC6
:100AE000052911D05B7A2BB1094A0A49019000F01F
:100AF000C3F901980849019000F0BEF9019803B0CC
:100B00005DF804EB00F0ADB9002AF8D0F2E700BFC1
:100B10003435000039350000313500002DE9F0434F
:100B200085B01F460C9D002395F80C902B7306464C
:100B30000C46904629463846FFF790FFB8F1060F5D
:100B400009D8DFE808F00412181F283340003146A6
:100B5000284600F091F9002229463846FFF7BCFFED
:100B600085F80C9005B0BDE8F08322683146284630
:100B700000F082F9EFE7D4E900233146284600F07F
:100B80007BF9E8E7A36800933146D4E900232846BF
:100B900000F072F9DFE7E3680193A3680093314640
:100BA000D4E90023284600F067F9D4E723690293CB
:100BB000E3680193A36800933146D4E900232846F3
:100BC00000F05AF9C7E76369039323690293E36866
:100BD0000193A36800933146D4E90023284600F02E
:100BE0004BF9B8E708292DE9F74F80460E4617461E
:100BF0001C4639D8002593F80C901D7319461046F1
:100C0000FFF72CFFDFF880A0DFF880B0AE422ED9CE
:100C100018F805205946204600F02EF90135082D18
:100C2000F4D11849DFF868A0DFF868B0204600F07A
:100C300023F90025AE421FD918F80520019210466D
:100C400002F036F80028019A594608BF2E222046A5
:100C500000F012F90135082DECD101222146384669
:100C6000FFF73AFF84F80C9003B0BDE8F08F5146CF
:100C7000204600F001F9D1E75146204600F0FCF88B
:100C8000E8E700BF503500004C3500004635000055
:100C90004E350000523500001FB50021039001AA17
:100CA00044F20100CDE9011100F004F805B05DF84F
:100CB00004FB000010B572B6FFF7BEFEFFF726FD7D
:100CC0000028FBD1104C11492088000440F001009D
:100CD000FFF778FE0E4BD3F8F030DB0700D500BEEF
:100CE00020880C49000440F00200FFF76BFEBFF3C0
:100CF0004F8F0749084BCA6802F4E0621343CB6088
:100D0000BFF34F8F00BFFDE710000020D835000073
:100D100000ED00E0E43500000400FA0572B6024A76
:100D2000136801331360704788050020034A136875
:100D3000013B136003B962B6704700BF880500200D
:100D4000FFF7ECBFFFF7F2BF10B5034653E8000F03
:100D50000A4643E8002494F0000FF7D110BD10B507
:100D6000034653E8002F42EA010043E8000494F0F0
:100D7000000FF6D110BD10B5034653E8000F00EA8E
:100D8000010243E8002494F0000FF6D110BD10B525
:100D9000034653E8002F02EB010043E8000494F0FF
:100DA000000FF6D110BD10B5034653E8002FA2EB9B
:100DB000010043E8000494F0000FF6D110BD0121BA
:100DC000FFF7CDBF0021FFF7D6BF10B590B1D0E936
:100DD000012301689B1ADBB20A60013BDBB2FF2BE7
:100DE000026802D10020107110BD11684C1C146003
:100DF0000B70F2E70E20F7E738B504460020FFF746
:100E00009FFF226863681168994213D9481E1060D9
:100E100011F8013CE568A18A01FB0355A36811792B
:100E20001B1ADBB2994200D213710020FFF78AFF30
:100E3000284638BD0025F8E738B5054600200C46A1
:100E4000FFF77EFF2A681368591C1160E968641A6D
:100E5000A98AB4FBF1F41C70BDE838400020FFF70C
:100E600071BF826810B504462AB143690168006900
:100E700098470023A36010BD0EB403B5039921B1B8
:100E800004AB01AA019300F06FF802B05DF804EB27
:100E900003B07047826830B40468551C8560A15463
:100EA000D0E901329A4202D330BCFFF7DABF30BC3E
:100EB000704700002DE9F84F9846DDE90A431546D2
:100EC00082460F460A464FF00109AA420FD2C14599
:100ED00038BFC14613F0010B01D16CB900240126C3
:100EE000B8F1010F1BD908F1FF386E43F8E709F19B
:100EF0000109B2FBF5F2E8E79B070ED5B8F1000F48
:100F00000CBF30262026A145E9D2013C314650468F
:100F1000FFF7C0FF002CF6D1E0E72026F3E7B7FB90
:100F2000F6F39D42E1D9DFF83C80B7FBF6F350467B
:100F300018F8031006FB1377FFF7ACFF3346AB42FC
:100F4000B6FBF5F6F1D2BBF1000F02D00CB1A14512
:100F500001D3BDE8F88F20215046013CFFF79AFFEE
:100F6000F4E700BFF13500002DE9F74F05461746BD
:100F70008846002900F03E8118F8011B49B92B7BF7
:100F8000002B00F03781284603B0BDE8F04FFFF793
:100F900068BF252940F0B780002698F800302D2B37
:100FA000424608F1010823D0302B24D02B2B25D02A
:100FB00000242A2B02F1010123D13B681A1D1B6872
:100FC0003A601C440A4613782E2B26D101324FF08A
:100FD000000A104610F8011BA1F1300CBCF1090FFA
:100FE0001DD80A2303FB0A13A3F1300A0246F0E7D7
:100FF00046F00106D1E746F00206CEE746F00406C9
:10100000CBE711F8013CA3F130000928DBD80A2214
:1010100002FB0434303C0A46CBE74FF0000A12F8DA
:10102000011B01F0FB0068289046F8D0782909D808
:101030006F290CD8632962D022D8252963D058297A
:1010400000F0888098F80030002B95D197E7703930
:101050000829F7D801A353F821F000BFCF110000F1
:10106000451000004510000065110000451000000B
:10107000431100004510000045100000551100000C
:10108000642901D06929DDD13A68D2F80090111D98
:1010900089EAE9723960A2EBE9724FF0010B092A83
:1010A00035DCD34538BFD3462CB1B9F1000F01DB95
:1010B000720700D5013CB30702D5BAF1000F03D087
:1010C000F00701D44CBB0024B9F1000F2DDAC9F1AF
:1010D00000092D212846FFF7DDFE06F00302022A53
:1010E00004D1BAF1000F01D11CBB0024CDE90046A8
:1010F00053460A2249462846FFF7DCFEA2E73B6832
:101100001A1D19783A602846FFF7C4FE9AE70A23A9
:101110000BF1010BB2FBF3F2C1E7A345D4D22021BE
:101120002846013CFFF7B6FECCE77107D5D52B2149
:10113000D0E7A345DAD230212846013CFFF7AAFECA
:10114000D2E73968CDE900460A1D3A6053460A22C3
:101150000968D0E739680A1D3A60CDE90046534670
:101160001022F5E73B681A1D3A6016F00106D3F825
:10117000009024D1B9F1000F03D0484601F042FE9F
:101180000646B4421DD809F1FF3919F8011F00299C
:101190003FF458AF2846FFF77DFEF6E728460136B4
:1011A000FFF778FE19F806100029F7D1A642BFF420
:1011B00049AF20212846013CFFF76CFEF6E70026E8
:1011C000F0E720212846013CFFF764FED9E73B68A1
:1011D0001A1D3A60302128461C68FFF75BFE782113
:1011E0002846FFF757FE00220823CDE900322146AA
:1011F000102280E703B0BDE8F08F00BFFFF7E5BD28
:10120000F8B546790146721E0546002393422D68C3
:1012100003D30024A64202D8F8BD0133F6E70F68D5
:101220002846FFF709FE01343946F3E72DE9F84374
:10123000868ACD1C0746FFF7DFFD043E3544044691
:10124000B5FBF6F5F0B14FF48073EDB28380C68044
:10125000013D076081464FF00008A84512D238468C
:10126000FFF7CAFD064648B163790133637108F19F
:101270000108C9F8000007608146EEE72046FFF745
:10128000BFFF34462046BDE8F88301210430FFF754
:101290007EBD10B5012104460430FFF784FDC0B2C5
:1012A00020B92046BDE81040FFF7AABF10BD2DE9C8
:1012B000F843B0F8068004330546B3FBF8F40F4654
:1012C000164608FB14333CB9A8EB0309B14528BF07
:1012D000B14626B9BDE8F8832D68013CF3E7043335
:1012E000E818A6EB09064A46391901F00DFDB0458C
:1012F0004C442D68C1464FF0000328BFB146E8E7D3
:101300002DE9F843B0F8068004330546B3FBF8F442
:101310000F46164608FB14333CB9A8EB0309B14548
:1013200028BFB14626B9BDE8F8832D68013CF3E734
:101330000433E918A6EB09064A46381901F0E4FC23
:10134000B0454C442D68C1464FF0000328BFB1465C
:10135000E8E700001FB503788DF800308388ADF80A
:10136000043083688DF80630C3688DF80730036950
:1013700002934369054A0393054B684653F82130AD
:1013800052F82110984705B05DF804FB8C05002049
:1013900094050020024B4FF4807043F0010318477E
:1013A000103600002DE9F047154690F80090324ABB
:1013B00042F82950314A42F829304B7B07460C4607
:1013C0006BB30868496882008B0002F1A04203F108
:1013D000A04340F20C66C2F800674FF0010AC3F860
:1013E00000674FF0A0460AFA00F00AFA01F1C6F8C9
:1013F0000805C6F8081540F20D61C2F80017C3F8D9
:101400000017FFF7C7FF4FF00008D6F810256368F4
:1014100022FA03F3DB070DD5B8F1000F1DD1002D23
:10142000174A4B4608BF2A462146381DBDE8F047FB
:1014300000F072B923680AFA03F3C6F80C35FFF717
:10144000A9FF23680AFA03F3C6F8083508F1010872
:10145000FFF7A0FFB8F1090FD7D1636801264FF05D
:10146000A04806FA03F3C8F80C35FFF793FF63684A
:101470009E40C8F80865D2E7940500208C0500203E
:10148000551300001FB503788DF8003043680193B1
:10149000037A8DF80830C368054A0393054B684604
:1014A00053F8213052F82110984705B05DF804FB3D
:1014B0009C050020A00500201FB503788DF80030A2
:1014C0004368019383688DF80830C368054A039325
:1014D000054B684653F8213052F82110984705B063
:1014E0005DF804FB9C050020A0050020F0B5194B19
:1014F00090F800C091F81DE043F82C20164B1646DA
:101500000A6943F82C20154B03F80CE00C460746FB
:101510000FCC89B06D460FC594E80F0085E80F0029
:10152000CDF810C0BEF1000F09D0002E0C4A69465C
:1015300008BF3246381D00F0CFFD09B0F0BD002EC7
:10154000084A694608BF324607F10C0000F0BCFBB0
:10155000F3E700BFA00500209C050020A4050020A3
:1015600085140000B9140000014B1B68184700BF28
:10157000A805002038B50B4B98420C4601D000203E
:1015800038BD0020FFF7DCFB074B1D7915B90122A0
:101590001C601A710020FFF7D5FB002DEFD0112041
:1015A000EEE700BF00200040A8050020034B984252
:1015B00001BF034B00221A601A71704700200040DF
:1015C000A80500200023435082B043580193019B9B
:1015D00002B07047F0B5D0F8243187B004460D460C
:1015E0009BB14FF49271FFF7EDFFD0F8043163B96E
:1015F000AB68C0F808330223AB60AB68C0F80433B3
:1016000001230362436107B0F0BDD4F80431002B1D
:1016100034D04FF48271204605F10C07FFF7D2FF5A
:101620000FCF01AE0FC63B68336095F82E3073B113
:101630002B7B012B0CBFD4F83C25D4F84C2502920F
:10164000022B0CBFD4F83C35D4F84C3503934FF43F
:10165000B0712046FFF7B6FF4FF4AE71FFF7B2FF4F
:1016600095F8303013B195F82E30CBB10023C4F883
:101670000032AB601F4BC4F8083311E04FF4A47183
:101680002046FFF79FFF2B7BEBB905F10C070FCF2F
:1016900001AE0FC63B68336095F83030002BE6D0C2
:1016A000D4F8C434C4F8C4349A071ED501238DF885
:1016B000003095F830300BB985F82F30D5E900317E
:1016C000684698479FE74FF40073C4F8003240F231
:1016D0000223AB6003F1CE73C4F80833AB68C4F8DF
:1016E00004330123A36023628DE713F0040318BFC2
:1016F0000223DCE702029C0101490248FFF76ABFAE
:10170000B00500200030004002494FF04020FFF7B4
:1017100061BF00BFE40500202DE9F84F0679384D80
:101720004FF0340A0AFB06FA05EB0A049B4694F8CC
:101730002D3080460F469146002B5CD1314B00681E
:1017400053F82610FFF716FF002856D13A687B7B26
:1017500084F832304FF0A04102F5E073A060C4F885
:1017600004B084F82F0084F8300040F20C6445F88F
:101770000A9041F823407B6803F5E07C41F82C4057
:10178000D8F80040C4F80825C4F80C35BB68C4F884
:101790002435B9F1000F26D044F30733002B3A7BF0
:1017A000B4BF194903F16041C4F307344FEA53133E
:1017B000B8BF04F00F074FEA4212A8BF01F561411C
:1017C0004FEA8303D2B203F16043B4BFCA5581F834
:1017D000002303F5614304F01F04012202FA04F41C
:1017E000C3F880411C60342303FB0655012385F8B0
:1017F0002D30BDE8F88F0820FBE71120F9E700BF86
:10180000B00500202036000014ED00E003680279E6
:101810000621C3F80015044B342101FB02330222D8
:1018200083F82D20704700BFB00500202DE9F84354
:10183000CB6803F06043B3F1005F0D46904603D0E0
:1018400010263046BDE8F88390F80490924F046863
:10185000924BC4F80833342606FB097696F82F30ED
:1018600023B1B368C4F804331126EAE712F0140F69
:101870000CBF0123002386F82F308E46BEE80F00F0
:1018800006F10C0CACE80F00DEF80030CCF80030AC
:10189000C8F3001386F830306B78C4F888354FF4FD
:1018A00082712046FFF78EFE4FF49271FFF78AFE99
:1018B00018F0010318BF0123C4F8503518F00203D3
:1018C00018BF0123C4F840352B78032B00F2C280E7
:1018D000DFE803F084AA68022B6903F06043B3F1E8
:1018E000005FADD14FF48073C4F80032EA686B68D2
:1018F000C4F844254FF4A871C4F84835FFF762FED8
:101900004FF4B071FFF75EFE4FF4A471FFF75AFE7B
:1019100001232362A360D4F85031002BFBD04FF495
:10192000A8712046FFF74EFEAB682A69C4F844252B
:10193000C4F848355A4A342303FB09739A604FF4BC
:1019400082710823002618F0080F04D12A78032A90
:101950001CBF0122E250342303FB09F3FA18FB58A1
:10196000002B7CD1012221440B68002B00F08480E5
:101970003422D4F8C434C4F8C43402FB09770022FA
:1019800087F82F20002B3FF45CAF13F0020F48F2D2
:10199000012608BF032613F0040F48F2022318BFE4
:1019A0001E464EE76B68EA68C4F84425C4F848351B
:1019B0002B6903F06042B2F1005F7FF441AFAA6887
:1019C000C4F834354FF48453C4F83825C4F80032D1
:1019D000342303FB097340F20222AFE76B68EA6825
:1019E000C4F8442518F0200FC4F848354FF03403EC
:1019F0000ED04FF4807203FB0973C4F80022284A0A
:101A00009A604FF4A471FFF7DDFD0123236298E78C
:101A10004FF4007203FB0973C4F8002240F2022263
:101A20009A604FF48271F0E76B68EA68C4F8342575
:101A3000C4F838354FF48053C4F80032342303FB24
:101A4000097340F202229A60012323624FF48271EB
:101A5000002377E74FF482710823072673E718F015
:101A6000040F1CBF4FF400739360342303FB09770A
:101A7000BB68C4F80433E4E6D4F82431002B3FF407
:101A800073AF4FF492712046FFF79CFD22624FF432
:101A90008271626167E700BFB005002002029C010D
:101AA00000020400F0B587B004460F461546002139
:101AB000142201A81E4601F050F99DF830308DF82F
:101AC0000570002B14BF2022002201A92046029697
:101AD0000495FFF7ABFE07B0F0BDF0B587B0044644
:101AE0000F4615460021142201A81E4601F035F9C3
:101AF0000123002201A920468DF804308DF80570DD
:101B000002960495FFF792FE07B0F0BD0023435004
:101B100082B043580193019B02B070470A4610B54A
:101B20004FF48E71FFF7F2FF136A9168C95C136A74
:101B300001331362C0F81C1510BD8B690A4610B53D
:101B40004FF4847123B9FFF7E1FFD0F8183510BDC9
:101B5000FFF7DCFF536AD168D0F81805C854536A00
:101B600001335362F3E700001FB501238DF8003005
:101B7000044BCDE90110D3E900126846904705B047
:101B80005DF804FB1806002030B54D4DD5F8043340
:101B90009A0585B051D5D5F82431002B4DD04FF49E
:101BA00092712846FFF7B2FF4FF40173C5F808336E
:101BB000444B93F829200AB901226A604049022265
:101BC0008DF80020D1F88024C1F8802403929A690E
:101BD0000292DA6801920022C3E906226846D3E93C
:101BE000001290473648D0F81C315BB1354A116A73
:101BF000536999424DD292F82830002B49D11146B1
:101C0000FFF78CFF2E48D0F84431002B55D04FF40D
:101C1000A271FFF77BFF2B4B93F829200AB1012219
:101C200002609A69002A48D0586AD96800229A61ED
:101C300005B0BDE83040FFF797BFD5F804335B0728
:101C4000D0D5D5F80831002BCCD01E4C1C482146ED
:101C5000FFF773FF636AA2699A42C3D1E369E1683F
:101C60004BB1A3612369E3600023606AE3616362AF
:101C7000FFF77AFFB6E794F829300BB901236B60C0
:101C80000F4B4FF40172C3F808230023606AA3616D
:101C9000EEE74FF48E710A48FFF738FF51690029CB
:101CA000B0D00023029191688DF80030019153610A
:101CB0006846D2E900139847A4E705B030BD00BFDD
:101CC00000200040180600202DE9F843594D90F8F7
:101CD00004802C2303FB0853064693F82A300C4655
:101CE0009146002B40F0A28053490068FFF742FC68
:101CF0000746002840F09C8022683068511C0BD0B9
:101D00004FF0A04101239340C1F8083502F5E0737C
:101D10004FF0030C41F823C061684B1C1FBF01F555
:101D2000E0734FF0A04C4FF0000E4CF823E0A36995
:101D3000C0F8243594F814C0637DBCF1010F4CEA5F
:101D40000303C0F86C35C0F81415C0F80C251DD17C
:101D5000A268531C1FBF02F5E0734FF0A0414FF083
:101D6000000C41F823C0E368591C0BD04FF0A04C85
:101D700001219940CCF8081503F5E0714FF0030EEE
:101D80004CF821E0C0F80835C0F810252C2202FBE1
:101D900008F2AB18C3F804902369AB50B9F1000FF7
:101DA00031D04FF48E71227FFFF7B0FE30684FF4D0
:101DB000A271FFF7ABFE33682049C3F80413190B77
:101DC00043F30733002BA8BF03F160404FEA5313DE
:101DD000BCBF01F00F041A484FEA4212A8BF00F539
:101DE00061404FEA8303D2B203F16043B4BF0255AE
:101DF00080F8002303F5614301F01F0101228A40AE
:101E0000C3F880211A6033680422C3F800252C230C
:101E100003FB08530022C3E9062283F829205A61F4
:101E2000012283F82A203846BDE8F8830827FAE71C
:101E30001127F8E718060020891B00008000020027
:101E400014ED00E0F8B5057900682C4C0023C0F8CB
:101E500000352C2303FB05435B686BB1284BC0F8AE
:101E6000083340F30733C0F304315B0901228A4091
:101E70002033244941F82320D0F80C65D0F81415FC
:101E8000D0F80835D0F810254FF0FF37BE42C0F823
:101E9000147518BF06F5E076C0F80C75C0F8087523
:101EA000C0F810751EBF4FF0A0474FF0020C47F866
:101EB00026C04E1C1FBF4FF0A04601F5E07102275F
:101EC00046F82170511C1FBF4FF0A04102F5E0728F
:101ED000022641F822605A1C1FBF03F5E0734FF041
:101EE000A042022142F82310FFF760FB2C2303FBE2
:101EF0000544002384F82A306360F8BD18060020EA
:101F00008402020000E100E00279044B2C2101FB75
:101F100002335869003818BF0120704718060020A6
:101F20002DE9F84F064689469246FFF7EDFF044635
:101F300000283DD196F804801F4F2C2508FB057B17
:101F40004FF48E71CBF82000CBF814A08BF828004A
:101F5000CBF808903068FFF7D9FD30680123836023
:101F60005946FFF7DBFDDBF804305D4613BB3068F4
:101F70002A6A6B699A4211D33368D3F81C21002A6C
:101F8000FBD00122DA6000202C2303FB087700231A
:101F90007B61BDE8F88F95F828303BB9D0F81C314B
:101FA000002BF8D05946FFF7B9FDE1E70F20EBE72A
:101FB0001120EEE72046ECE71806002000234350EE
:101FC00082B043580193019B02B070471FB50123B3
:101FD0008DF80030054B8DF8080001916846D3E973
:101FE0000012904705B05DF804FB00BF44060020D6
:101FF0007FB5374AD2F82461002E47D010464FF4FF
:102000009271FFF7DBFF02238DF80030D2F88034A5
:10201000C2F880340393D2F83C358DF808302D4B4C
:10202000DA6801920022C3E906226846D3E9001269
:1020300090472748D0F844316BB14FF4A271FFF7B5
:10204000BDFF244B9A6932B100229A61D0F83C0559
:10205000D968FFF7BBFF1E48D0F82031A3B14FF479
:102060009071FFF7ABFF1B4B5A696AB1D0F84C1562
:102070008DF80810002299688DF8002001915A61AE
:102080006846D3E90012904704B070BDD2F8103111
:10209000002BCED04FF488711046FFF78FFF0D4B09
:1020A000D2F83C0599698842C3D1DC69D96864B12A
:1020B000D2F8005225F02005C2F800521A699C613E
:1020C000DA60DE61FFF782FFB3E79C61FAE700BFE9
:1020D00000200040440600202DE9F8435D4E90F8B2
:1020E0000480242303FB0863054693F820300C4644
:1020F0009146002B40F0AA8057490068FFF73AFA52
:102100000746002840F0A48022682868511C0BD0A4
:102110004FF0A04101239340C1F8083502F5E07368
:102120004FF0030C41F823C061684B1C1FBF01F541
:10213000E0734FF0A04C4FF0000E4CF823E0A36981
:10214000C0F8243594F814C0637DBCF1010F4CEA4B
:102150000303C0F86C35C0F80C25C0F814151DD168
:10216000A268531C1FBF02F5E0734FF0A0414FF06F
:10217000000C41F823C0E368591C0BD04FF0A04C71
:1021800001219940CCF8081503F5E0714FF0030EDA
:102190004CF821E0C0F80835C0F81025242202FBD5
:1021A00008F2B318C3F804902369B350B9F1000FD3
:1021B0003BD04FF48871227FFFF700FF28684FF46F
:1021C0009071FFF7FBFE28684FF49271FFF7F6FE5F
:1021D00028684FF4A271FFF7F1FE2B681F49C3F87E
:1021E0000413190B43F30733002BA8BF03F160401E
:1021F0004FEA5313BCBF01F00F0419484FEA4212D3
:10220000A8BF00F561404FEA8303D2B203F16043F7
:10221000B4BF025580F8002303F5614301F01F01AC
:1022200001228A40C3F880211A602B680822C3F873
:102230000025242303FB08660023C6E906337361E7
:10224000012386F820303846BDE8F8830827FAE7EE
:102250001127F8E744060020F11F000010030200D8
:1022600014ED00E0F8B5057900682C4C0023C0F8A7
:102270000035242303FB05435B686BB1284BC0F892
:10228000083340F30733C0F304315B0901228A406D
:102290002033244941F82320D0F80C65D0F81415D8
:1022A000D0F80835D0F810254FF0FF37BE42C0F8FF
:1022B0000C7518BF06F5E076C0F81475C0F80875FF
:1022C000C0F810751EBF4FF0A0474FF0020C47F842
:1022D00026C04E1C1FBF4FF0A04601F5E07102273B
:1022E00046F82170511C1FBF4FF0A04102F5E0726B
:1022F000022641F822605A1C1FBF03F5E0734FF01D
:10230000A042022142F82310FFF750F9242303FBD7
:102310000544002384F820306360F8BD44060020A3
:102320001003020000E100E00279044B242101FBCC
:1023300002335869003818BF012070474406002056
:102340002DE9F84301F06043B3F1005F064688468B
:10235000914634D1FFF7E8FF044690BB32791B4F1A
:102360003068242505FB02754FF49071C5F8149070
:10237000C5F80880FFF722FE30684FF4AC71FFF714
:102380001DFE33686969A868C3F84405C3F8481599
:10239000012199606968B1B9D3F82011D3F85801C7
:1023A00049B90028F8D00F20242303FB027700232B
:1023B0007B61BDE8F883002818BF0F20F4E71020E8
:1023C000F7E71120F5E72046F3E700BF44060020B9
:1023D00038B5054D044645F001054FF47A40A8474D
:1023E000013CFAD138BD00BF503700002DE9FF4154
:1023F0004FF400410020FEF725F908B1FEF74CFC30
:10240000444CFEF751F820884349000440F0030093
:10241000FEF7D8FAFEF77AF905460028FAD100F05F
:10242000D7FA3E4FDFF81C81012601230DF10F0280
:10243000F1B23846FFF751FB40B92088000432461C
:10244000414640F00300FEF7C1FA0125FEF75EF9B0
:102450000028FBD10136802EE7D1002D3AD0304D37
:1024600000F018FB002841D020882E492E4D2F4F18
:10247000000440F00300FEF7A5FA20882C49000470
:1024800040F00300FEF79EFA4FF4FA60FFF7A0FF5A
:10249000AE1C28493246481E00F00CFB90B3208841
:1024A00095F902300093000495F9013095F9002068
:1024B000214940F00300FEF792FA95F9023095F9B0
:1024C000012095F900101D4800F006F96420FFF77F
:1024D0007FFFDEE720881A49000440F00300FEF782
:1024E00071FAFEF713F90028FBD1B8E72088000441
:1024F000294640F00300FEF765FA4FF47A70FFF7C3
:1025000067FFADE720880004394640F00300FEF77E
:1025100059FADBE710000020333600005C3700007A
:1025200082360000A3360000680600202437000031
:10253000C036000069060020D9360000FF360000D2
:102540006D360000483600000369C26893429CBFA4
:1025500080681B18013B981A70472DE9F843D0E9B1
:1025600002940546A9EB04084068904520440F46B4
:10257000144404D900F0C8FBEC60BDE8F88342467F
:10258000A4EB090400F0C0FB6868224607EB0801D1
:10259000F0E72DE9F843C5680646894617464FF02F
:1025A00000083469B3687068A54228BFE418013C8C
:1025B000621B5C1BBC4228BF3C46944228BF1446A9
:1025C00049462844224600F09FFBB3682544AB42AD
:1025D00008BF00253F1BA044A144F560E1D140465F
:1025E000BDE8F88310B5114C114AA2610223C4E979
:1025F0000433104BE361A2644FF400730E4A0F4999
:102600002362E26400231022E01DA3626362E3629E
:10261000A3656365E365226500F0D2FB08492046A7
:1026200000F0CEFB2023A37110BD00BF6C0600207C
:1026300068370000F4060020E4060020713700002F
:102640007537000070B5164B182400FB04451D4477
:1026500004FB00331646DC6A012C0ED0022C18D085
:10266000E4B92846FFF770FF864204D83246284670
:10267000FFF773FF3446204670BD2846FFF764FF1E
:102680008642344628BF044622462846FFF765FFA7
:10269000F1E72846BDE87040FFF77BBF0024EAE77A
:1026A0006C06002070B50B4B1B7804460D46164691
:1026B0000BB9FFF797FF0020FEF742FB3246294691
:1026C0002046FFF7BFFF04460020FEF73BFB2046F5
:1026D00070BD00BF6C0600200FB410B5A2B024ABD3
:1026E000802153F8042B019302A800F0FDFA802802
:1026F00004460ADD802202A90020FFF7D3FF20460E
:1027000022B0BDE8104004B070470028F7DD024653
:10271000F1E74FF0704393F8E02F062A10D1D3F879
:10272000E42F12070CD1D3F8E80F00F0F003302BA0
:1027300008D000F0E000A0F1400358425841704733
:1027400000207047012070474FF0704393F8E02F4E
:10275000062A0CD1D3F8E42F120708D1D3F8E80FDA
:1027600000F0F000A0F130035842584170470020BB
:102770007047000008B5FFF7CCFF40B14FF0805321
:10278000884AD3F82433C3F30423C2F84035FFF753
:10279000DBFF10B1844B854A5A67FFF7BAFF48B197
:1027A0004FF080534FF08042D3F84432C3F34233AA
:1027B000C2F83C35FFF7C8FF30B17D4AD2F8FC3093
:1027C00023F08073C2F8FC30FFF7A3FF40B14FF055
:1027D00080430022C3F80C21C3F81021C3F8382528
:1027E000FFF7B2FF20B14FF080430322C3F8A025CA
:1027F000FFF7AAFF60B16F4B0522C3F81026012234
:10280000C3F888260022C3F818263F22C3F81426EE
:102810004FF0704393F8E02F062A50D1D3F8E42FFD
:1028200011074CD1D3F8E83F03F0F003502B46D109
:102830004FF08052604BD2F80414C3F82015D2F840
:102840000814C3F82415D2F80C14C3F82815D2F8CC
:102850001014C3F82C15D2F81414C3F83015D2F89C
:102860001814C3F83415D2F81C14C3F84015D2F864
:102870002014C3F84415D2F82414C3F84815D2F82C
:102880002814C3F84C15D2F82C14C3F85015D2F8FC
:102890003014C3F85415D2F83414C3F86015D2F8C4
:1028A0003814C3F86415D2F83C14C3F86815D2F88C
:1028B0004014C3F86C15D2F84424C3F87025FFF710
:1028C00028FF48B14FF080534FF08042D3F8583280
:1028D00003F04F03C2F8E43EFFF71BFF48B14FF08F
:1028E0008043D3F80024D20744BF6FF00102C3F83D
:1028F00000244FF08053D3F83021062A0AD1D3F8B0
:102900003431062B01BF2D4AD2F83C3743F48063A3
:10291000C2F83C37264AD2F8883043F47003C2F834
:102920008830BFF34F8FBFF36F8F4FF01023D3F872
:102930000022002A03DBD3F80432002B2EDA204BCE
:102940000122C3F80425D3F80024002AFBD04FF05D
:1029500010221521C2F80012D3F80024002AFBD05F
:102960004FF010231522C3F80422154BD3F800248E
:10297000002AFBD00022C3F80425D3F80024002A43
:10298000FBD0BFF34F8F0A490E4BCA6802F4E062D6
:102990001343CB60BFF34F8F00BFFDE70A4B0B4AD9
:1029A0001A6008BD0030014000C007400DF0ADBA0C
:1029B00000ED00E00050004000C00040001000406A
:1029C00000E001400400FA05380000200090D00328
:1029D0001FB51B221A23CDE900234FF0CC7102232F
:1029E000CDE90213002307481A466946FEF7DAFCD0
:1029F00008B1FEF751F90448FEF708FF05B05DF88D
:102A000004FB00BF84370000883700001FB50C4A64
:102A10008DF80C00002313708DF80D10009303AA9D
:102A200002234C210748FFF73DF8044601460648BB
:102A3000FFF752FEB4FA84F0400904B010BD00BFA5
:102A4000F4080020883700007C370000F0B585B01E
:102A50000E4F8DF80F0001230D46164600240C483A
:102A600000930DF10F024C213C70FFF71BF858B991
:102A70003870334606482A464C21FFF72EF8B0FA44
:102A800080F0400905B0F0BD2046FBE7F4080020C7
:102A90008837000008B500210720FFF7B7FF07219E
:102AA0000820FFF7B3FF01210720FFF7AFFF012048
:102AB00008BD00002DE9F3471A4B904600271A88FD
:102AC0009B78ADF80420824689468DF8063001AE29
:102AD0006D463C460122294616F8010BFFF7B6FF6A
:102AE00015F9012B02F01F03D20648BF5B42022CEE
:102AF00004F10104E4B208BF0127032C05F8013CEE
:102B0000E8D19DF800308AF800309DF8013089F84E
:102B100000309DF8023088F80030384602B0BDE839
:102B2000F08700BF7F3700007F2805D8034A044B99
:102B3000105C5B5C1840704700207047A0370000B5
:102B400020380000A0F16103192B98BF203870478E
:102B5000A0F14103192B98BF203070477F299ABFFD
:102B6000017001206FF02E00704700BF5AB10A7843
:102B70007F2A0AD800B102600021501AC3E900116F
:102B800018BF01207047104670476FF02E00704745
:102B9000A0F16103192B98BF20387047A0F14103C1
:102BA000192B98BF203070477F2805D8034A044B63
:102BB000105C5B5C1840704700207047A037000035
:102BC0002038000038B585680446084645B12268BB
:102BD0006168531C8B4208BF00208A420AD2A85465
:102BE000E26823682AB161688B4202D2214690478D
:102BF00023680133236038BD70B54D1E22D413689D
:102C00001446C6B20EE0D0542368E2682AB1616867
:102C1000994202D9214690472368013D01336A1C3D
:102C200023600FD0A26872B1616803F1010C8C457A
:102C300014BF304600209942E5D8013D63466A1C26
:102C40002360EFD170BD3046DFE700BFC3062BD451
:102C500010F4007F70B514BF302620264D1E22D4FC
:102C600013681446F6B20EE0D0542368E2682AB125
:102C70006168994202D9214690472368013D01339A
:102C80006A1C23600FD0A2687AB1616803F1010C5D
:102C90008C4514BF304600209942E5D8013D63467B
:102CA0006A1C2360EFD170BD70473046DEE700BF7D
:102CB000024B5B689B6809211B6818473C00002099
:102CC000027862B169B100EB010C034601E0634593
:102CD00003D013F8011F0029F9D1181A70471046C4
:102CE00070470846704700BF30B5944685B0002550
:102CF000CDE902050C461A4661466846019400F08B
:102D0000B1F805B030BD00BF844640EA010313F0BE
:102D1000030F18D18446202A0BD32DE9F007B1E820
:102D2000F807A0E8F807A2F12002202AF7D2BDE8B0
:102D3000F007042A07D351F8043B40F8043BA2F102
:102D40000402042AF7D2002A05D011F8013B00F84A
:102D5000013B013AF9D1604670478446002A2DD0E4
:102D600010F0030F04D000F8011B013A26D0F7E75A
:102D7000C9B241EA012141EA0141202A12D3A2F15C
:102D800020022DE9F0030B460C460D460E460F4679
:102D900088468946A0E8FA03203AFBD2BDE8F00352
:102DA00020320BD0042A05D340F8041B043A05D086
:102DB000042AF9D200F8011B013AFBD160467047A2
:102DC000024610F0030F16D111F0030F13D12DE9B5
:102DD000F0004FF001374FF0803351F8044BA4EB73
:102DE000070525EA04051D4002D142F8044BF4E72B
:102DF000A1F10401F0BC11F8013B02F8013B002BEA
:102E0000F9D1704700F1010110F0030F11D010F853
:102E1000012B002A23D010F0030F0AD010F8012B49
:102E2000002A1CD010F0030F03D010F8012B002A49
:102E300015D02DE970004FF001324FF0803350F87B
:102E4000044BA4EB020525EA04051D4000D1F6E77A
:102E5000A0F1040070BC10F8012B002AFBD1A0EBFC
:102E6000010070472DE9F04F00230C46036089B044
:102E700014F8011B03920746002900F0E582DFF8F1
:102E8000DC9507E03846FFF79DFE14F8011B00298A
:102E900000F058812529F5D12246002612F8010BB1
:102EA000302800F29E801F280ED9A0F12003102B9D
:102EB0000AD8DFE803F0AC0909A8090909A409093F
:102EC00009A0099C09098D002A2840F0FC80039B79
:102ED00010781D680433002D0393BCBF6D4246F08B
:102EE0001006A21C2E2800F004810021742800F096
:102EF00092807A2800F08F806C2800F032814C2874
:102F000000F03581682800F0BE811446002800F0EA
:102F10008880A0F12503DAB2532A00F22B81532BCB
:102F200000F22881DFE813F0EB01260126012601DB
:102F30002601260126012601260126012601260159
:102F40002601260126012601260126012601260149
:102F50002601260126012601260126012601260139
:102F60002601260126012601260126012601260129
:102F70002601260126012601260126012601260119
:102F800026012601260126012601260126018200AE
:102F900026012601260126012601260126012601F9
:102FA00026012601D601F60026012601260126016A
:102FB000F6002601260126012601500248021302CE
:102FC00026012601ED012601CB0126012601840000
:102FD00046F400761446224612F8010B30287FF69C
:102FE00062AF5E286FD146F480561446F3E746F090
:102FF00010061446EFE746F020061446EBE746F4C9
:1030000000461446E7E746F080061446E3E746F03C
:1030100040061446DFE7144614F8010B00287FF43D
:1030200078AF4FF0FF3009B0BDE8F08F46F400569E
:1030300016F0800A06D043F2780A43F25803782843
:1030400018BF9A4616F4807307BF06F48042B04654
:1030500026F4007806F48042002A61D1039A18F021
:10306000040F02F104060396126800F0A08092B2E9
:10307000002B65D028F400785838202800F29D8075
:10308000DFE810F073019B009B009B009B009B00FE
:103090009B009B009B009B009B009B00D4009B001F
:1030A0009B009B009B00D4009B009B009B009B000F
:1030B0009B00090173019B009B009B009B00D400B7
:1030C0009B009B007301A0F13004E3B2092B4FF089
:1030D00000053FF607AF12F8010B05EB850504EB81
:1030E0004505A0F13004E3B2092BF4D92E287FF472
:1030F000FCAE10782A2840F07781039B507819683D
:10310000941C0433002903932246FFF6EFAE46F4E5
:103110008076EBE646F4804806F480734FF0000AB0
:10312000039A18F0040F02F104060396126830D0D7
:1031300012B2002A31DA52424FF02D0A002B99D1F7
:10314000012199E73868BB68002B3FF46CAF7A68BF
:1031500082427FF668AF00221A54386809B0BDE891
:10316000F08F144646F0010614F8010BCEE646F047
:1031700001061446B54BD3F80080B8F1000F3FF4B8
:1031800084AE009103A901912B4632463946C047CF
:103190007BE618F0080FCCD0D2B218F0200F40F028
:1031A0003E8118F0400F18BF4FF0200A60E718F07A
:1031B000080F3FF45DAFD2B25AE74FF0FF3600235D
:1031C00021EAE17BA5EB0B05BAF1FF0FA5EB0305A7
:1031D00040F20481CAF307213846023DFFF7F2FCB2
:1031E0005FFA8AF13846FFF7EDFC40463A46294639
:1031F000FFF72CFD3A4659463020FFF7FDFC731CC3
:103200000AD001360DF1140A564416F8011D38464D
:10321000FFF7D8FCB245F8D118F0100F3FF435AEE7
:1032200029463A462020FFF7E7FC2EE61046002A02
:1032300000F0068108F4004C624600238C464FF0F3
:103240002C0E114603F0030209B1032A14D01E46C6
:10325000A9FB0032D20802EB820306F1200BA0EB9F
:103260004303EB44303309280BF80C3C06F101030F
:1032700040F2D2801046E5E703F120026A445E1C6A
:1032800002F80CECE4E71078682800F0D480541CB5
:1032900046F004063AE61046002A00F0D1800DF10F
:1032A000140C002302F007023032C0080CF8012B86
:1032B0001E46024601330028F4D1C91A80E716F4ED
:1032C000807300F0AF8026F4007806F480424FF05F
:1032D000000AC1E6039B013D191D93F8008003918C
:1032E0003A4629463046FFF7B1FC41463846FFF7DB
:1032F00069FCB3461BF0100F3FF4C7AD90E72521E2
:10330000C0E5039B524A181D0390D3F800A0BAF100
:10331000000F08BF9246F205D04626F4007B5046C7
:1033200040F18580FFF7CCFC0646AD1B3A462946A6
:103330005846FFF78BFC002EDCD018F8011B3846EE
:10334000FFF740FCAAEB0803F342F6D1D2E7039B58
:103350001A1D039216F0800F1A6846F480780CBF8D
:103360004FF0000A4FF0230A08211046002A67D0C8
:1033700008F4005C634605AA8C460026A34619465D
:1033800009E0344B000913F80E3002F8013B06F156
:1033900001030DD01E4600F00F0E0029F1D12E4C76
:1033A000000914F80E3002F8013B06F10103F1D1D7
:1033B00061465C46C91A03E716F0800F0CBF4FF058
:1033C000000A4FF0300A3DE6039B3A68191D03914D
:1033D0001B6831074CBF1A701A6056E5BAF1000F2E
:1033E0003FF403AF013DFBE6A0F13004E3B2092B4B
:1033F00002F101024FF000013FF689AE12F8010B15
:1034000001EB810104EB4101A0F13004E3B2092B8F
:10341000F4D946F4807669E56146C91AD0E64FF0E2
:103420002B0A25E606F48042B0469A4614E6FFF7DA
:10343000E9FC064679E7507846F00806941C65E5F5
:1034400013464FF0FF36BBE608467CE6F80800203E
:10345000F4390000E4390000D4390000CDCCCCCCE4
:1034600016360000000000001A36000000000000C0
:1034700028360000000000002D360000000000008B
:10348000FD340000000003030135000000000003CC
:10349000940000205C010020640100209C000020BA
:0834A0001400002018000000D8
:1034A8000000000000000000000000000000000014
:0834B80000000000000000000C
:1034C000FFFFFFFFFFFFFFFFFFFFFFFFFFFFFFFF0C
:1034D00000000000000000000000D601070100000D
:1034E0001104000075040000C10300004261636B19
:1034F000656E647320666C757368656400617070D6
:103500000062616C6C6F632E6C6F675F6D656D70D0
:103510006F6F6C001B5B313B33316D0025734C6F5B
:1035200067732064726F7070656420282564292594
:10353000730D0A001B5B306D002573003C25733E44
:103540002025733A200020253032780020202000EA
:103550007C002563001B5B313B33306D001B5B310E
:103560003B33326D001B5B313B33336D001B5B31F2
:103570003B33346D001B5B313B33356D001B5B31DE
:103580003B33366D001B5B313B33376D0077617227
:103590006E696E6700696E666F00646562756700CC
:1035A0003435000055350000143500005D3500004D
:1035B000653500006D350000753500007D35000073
:1035C0008535000000000000DE3500008D3500006C
:1035D000953500009A350000466174616C20657273
:1035E000726F720053797374656D207265736574C0
:1035F000003031323334353637383941424344456F
:103600004600000000000000000000000000000074
:103610000338FDD87047505253005457494D0000AD
:10362000F916000009170000554152540055415247
:10363000544500545749207363616E6E6572207360
:103640007461727465642E0054574920646576690C
:1036500063652064657465637465642061742061CA
:1036600064647265737320307825782E004E6F2065
:103670006465766963652077617320666F756E6433
:103680002E004D4D413736363020696E69746961C0
:103690006C697A6174696F6E206661696C6564211A
:1036A0002121004D4D413736363020496E69742056
:1036B0005375636365737366756C6C7921212100A2
:1036C00052656164696E672056616C75657320662A
:1036D000726F6D204143432000436F6F7264696EC7
:1036E000617465733A202078203D2025642020797C
:1036F000203D20256420207A203D2025640A0043B7
:103700006F6F7264696E617465733A202078203D32
:10371000202564202079203D20256420207A203D2A
:103720002025640052656164696E6720636F72646E
:10373000696E61746573204661696C65642121213D
:103740000000000000000000000000000000000079
:103750000338FDD870470000000000000030004032
:1037600000000000010000005465726D696E616C1C
:1037700000525454005345474745520025780000F5
:1037800001020000000000000030004000000000C6
:103790000100000043000000504F53495800000052
:1037A00020202020202020202068282828282020B1
:1037B0002020202020202020202020202020202009
:1037C00048101010101010101010101010101010C1
:1037D0008484848484848484848410101010101061
:1037E00010818181818181010101010101010101BA
:1037F000010101010101010101010110101010106E
:10380000108282828282820202020202020202028A
:103810000202020202020202020202101010102032
:103820000007032004170201085710408000000021
:103830009437000098380000AC39000053756E00D2
:103840004D6F6E00547565005765640054687500CF
:103850004672690053617400000000004A616E0006
:10386000466562004D617200417072004D617900E1
:103870004A756E004A756C004175670053657000AB
:103880004F6374004E6F76004465630000000000D3
:10389000414D00504D000000D0390000CC390000EF
:1038A000CC390000CC390000CC390000CC39000004
:1038B000CC390000CC390000CC390000CC390000F4
:1038C000FFFFFFFFFFFFFFFFFFFFFFFFFFFF000006
:1038D0000C3900003C380000483900005C3800001A
:1038E00090380000F0380000A0390000FC380000DB
:1038F000256D2F25642F25790000000025612025E6
:1039000062202565202554202559000053756E64DA
:103910006179004D6F6E64617900547565736461FF
:1039200079005765646E65736461790054687572D7
:1039300073646179004672696461790053617475DA
:1039400072646179000000004A616E7561727900ED
:103950004665627275617279004D617263680041FB
:103960007072696C004D6179004A756E65004A7528
:103970006C79004175677573740053657074656D7B
:10398000626572004F63746F626572004E6F766598
:103990006D62657200446563656D6265720000006A
:1039A00025483A254D3A255300000000292B0000F8
:1039B000452B0000512B0000A92B0000912B00008B
:1039C0009D2B00005D2B00006D2B0000000000000F
:1039D0002E000000303132333435363738396162E9
:1039E00063646566303132333435363738394142B5
:0B39F00043444546286E756C6C2900AE
:1039FC0000000000002000400000000000200040FB
:103A0C0000000000E0340000000000000000000096
:103A1C000090D003303800003038000030380000FF
:083A2C003038000030380000C2
:0400000300000239BE
:00000001FF
